:100000000C9446000C9465000C9465000C946500FB
:100010000C9465000C948D030C942D030C946500D6
:100020000C9465000C9465000C9458020C946500C7
:100030000C9465000C9465000C9465000C946500AC
:100040000C9404100C9465000C9465000C946500ED
:100050000C9465000C9465000C9465000C9465008C
:100060000C9465000C9465000C9465000C9465007C
:100070000C9465000C9465000C9465000C9465006C
:100080000C9465000C9465000C94650011241FBE4F
:10009000CFEFD0E1DEBFCDBF12E0A0E0B1E0E0E9FC
:1000A000F1E200E00BBF02C007900D92A232B1074F
:1000B000D9F717E0A2E2B2E001C01D92AF34B10758
:1000C000E1F70E94D0040C94C6100C94000083E069
:1000D00082BB80B58B7F80BD1092710080E28093DF
:1000E000700084E480937400089517B887E886B997
:1000F0000895369A349BFECF24B145B1942F80E009
:1001000030E0282B392BC9010895BC01660F672FF9
:10011000661F770B719540E050E0E1E0F0E00FC022
:100120002BB3CF01042E02C0880F991F0A94E2F767
:10013000282B2BBB4F5F5F4F4830510599F0641758
:10014000750774F72BB3CF01042E02C0880F991FD7
:100150000A94E2F7809582238BBB4F5F5F4F483054
:10016000510569F70895982F84EA8093740080916F
:10017000740087FFFCCF80917100887F883029F060
:1001800080917100887F803191F788E980937300B6
:1001900084E8809374008091740087FFFCCF809185
:1001A0007100887F8831B9F79093730084E8809359
:1001B00074008091740087FFFCCF80917100887F6C
:1001C0008832B9F76093730084E88093740080915B
:1001D000740087FFFCCF80917100887F8832B9F767
:1001E00084E9809374000895982F84EA80937400C2
:1001F0008091740087FFFCCF80917100887F8830E8
:1002000029F080917100887F803191F788E980938F
:10021000730084E8809374008091740087FFFCCFA2
:1002200080917100887F8831B9F79093730084E8DA
:10023000809374008091740087FFFCCF80917100DF
:10024000887F8832B9F784E980937400089584EA3E
:10025000809374008091740087FFFCCF80917100BF
:10026000887F883029F080917100887F803191F7F4
:1002700089E98093730084E880937400809174000E
:1002800087FFFCCF80917100887F8034B9F784ECC0
:10029000809374008091740087FFFCCF809171007F
:1002A000887F8035B9F73091730084EC80937400B7
:1002B0008091740087FFFCCF80917100887F80352A
:1002C000B9F72091730084E980937400932F80E044
:1002D00030E0282B392BC90108951BBA80709F7715
:1002E000E92FF0E041E050E021E030E060E070E034
:1002F000A1E0B0E007C09D0102C0220F331F4A9564
:10030000E2F7AC01C9018E239F23892B11F0620F04
:10031000731FCA0101968930910569F76BBB089577
:100320001F93DF93CF9300D000D0CDB7DEB79C01F1
:1003300097FD4BC013E1C90180709F77492F27FDBE
:100340004FC0B0E0E0E0F0E0842F6AE00E9484104B
:100350000E948410A92F842F0E948410EF5FFE4F0B
:10036000808185BB809115018093650020E030E09D
:1003700040E45FE1BE016F5F7F4FFA013197F1F713
:100380002F5F3F4F24303105C4F4B9839A83AB8388
:100390001C83FB01E20FF31FE081F0E0EF5FFE4FF3
:1003A000808185BBF901EB5EFE4F80818093650003
:1003B0002130310511F7AF9AE0CF0F900F900F90D9
:1003C0000F90CF91DF911F91089511E12095309505
:1003D00021503040C90180709F77492F27FFB1CF4E
:1003E000B5E0E5E0F0E0B0CF0E9485000895FF920F
:1003F0000F931F939C0168EE73E00E949010CB0155
:100400006AE070E00E949010F82EC90164E670E086
:100410000E949010CB016AE070E00E949010082FBB
:10042000C9016AE070E00E949010CB016AE070E0C0
:100430000E949010182FC9016AE070E00E9490108D
:10044000A1E0B1E0FD01E80FF11D808185BB809145
:10045000150145E650E0FA01808320E43FE1C9013F
:100460000197F1F7FD01E10FF11D808185BB8091BE
:100470001601FA018083C9010197F1F7FD01E00F30
:10048000F11D808185BB80911701FA018083C9012C
:100490000197F1F7AF0DB11D8C9185BB80911801CB
:1004A0008083C9010197F1F71F910F91FF90089583
:1004B0001F920F920FB60F920BB60F9211242F932B
:1004C0003F934F935F936F937F938F939F93AF93DC
:1004D000BF93EF93FF93DF93CF930F92CDB7DEB728
:1004E00080912202909123020197D1F180E188BB93
:1004F00081E090E090932302809322028091260273
:100500009091270260E070E0AE014F5F5F4F0E9464
:10051000750A80910001843749F1809100018C3681
:10052000E1F080912602909127020E94560A0F90D6
:10053000CF91DF91FF91EF91BF91AF919F918F91FB
:100540007F916F915F914F913F912F910F900BBED3
:100550000F900FBE0F901F90189589E884BDE1CFD2
:1005600018BA1092230210922202C8CF81E184BDF2
:10057000D8CFCF92DF92EF92FF920F931F93DF932A
:10058000CF930F92CDB7DEB76E010894C11CD11C7A
:10059000809126029091270260E070E0A6010E94FF
:1005A000750A10910001E0902A02F0902B028091D0
:1005B0002602909127020E94560A1C3659F080911B
:1005C00024029091250261E042E820E030E08601BB
:1005D0000E941C0DF894C7010E948500C7010E946B
:1005E000F7017894D5CFCF92DF92EF92FF920F93DD
:1005F0001F93DF93CF930F92CDB7DEB76E010894B0
:10060000C11CD11C809126029091270260E070E00D
:10061000A6010E94750A10910001E0902A02F09054
:100620002B0280912602909127020E94560A1437CD
:1006300059F0809130029091310261E042E820E06F
:1006400030E086010E941C0DF894C7010E946D01E4
:10065000C7010E9490017894D5CF1F920F920FB6D8
:100660000F920BB60F9211240F931F932F933F936A
:100670004F935F936F937F938F939F93AF93BF93AA
:10068000EF93FF93DF93CF930F92CDB7DEB7F8943C
:10069000809126029091270260E070E08E010F5F4A
:1006A0001F4FA8010E94750A8CE6809300011092EA
:1006B0002B0210922A0280912602909127020E941A
:1006C000560A87B7806487BF80E49CE90197F1F7F9
:1006D00087B78F7B87BF80912E0290912F0261E0B8
:1006E00041E098010E94A50C78940F90CF91DF9182
:1006F000FF91EF91BF91AF919F918F917F916F91FA
:100700005F914F913F912F911F910F910F900BBED1
:100710000F900FBE0F901F9018951F920F920FB65B
:100720000F920BB60F9211240F931F932F933F93A9
:100730004F935F936F937F938F939F93AF93BF93E9
:10074000EF93FF93DF93CF930F92CDB7DEB7F8947B
:10075000809126029091270260E070E08E010F5F89
:100760001F4FA8010E94750A84E780930001109230
:100770002B0210922A0280912602909127020E9459
:10078000560A87B7806487BF80E49CE90197F1F738
:1007900087B78F7B87BF809128029091290261E003
:1007A00041E098010E94A50C78940F90CF91DF91C1
:1007B000FF91EF91BF91AF919F918F917F916F9139
:1007C0005F914F913F912F911F910F910F900BBE11
:1007D0000F900FBE0F901F901895EF92FF921F93EE
:1007E000DF93CF930F92CDB7DEB77E010894E11C63
:1007F000F11C0EC0809124029091250261E041E03D
:1008000097010E94A50C789484E690E00E94AC08C1
:10081000F894809126029091270260E070E0A70191
:100820000E94750A10910001809126029091270282
:100830000E94560A80912C0290912D0260E070E097
:10084000A7010E94570CFC018081918190932B029B
:1008500080932A02143771F6809130029091310210
:1008600061E041E097010E94A50CCDCFCF92DF92CD
:10087000EF92FF920F931F93DF93CF9300D00F92CD
:10088000CDB7DEB71B821A8217B887E886B97E011A
:100890000894E11CF11C92E0C92ED12CCC0EDD1E77
:1008A000809126029091270260E070E0A7010E94EB
:1008B000750A1091000180912602909127020E94F2
:1008C000560A1C3659F080912E0290912F0261E059
:1008D00042E820E030E087010E941C0DF8940E945D
:1008E00079009B838A8380912C0290912D02B6011E
:1008F0000E943D0C789484E690E00E94AC08D0CF32
:10090000CF92DF92EF92FF920F931F93DF93CF93DB
:1009100000D00F92CDB7DEB71B821A820E9467000B
:1009200081E060E00E94B30080E00E94F4007E015C
:100930000894E11CF11C22E0C22ED12CCC0EDD1E4D
:10094000809126029091270260E070E0A7010E944A
:10095000750A1091000180912602909127020E9451
:10096000560A143759F0809128029091290261E0CB
:1009700042E820E030E087010E941C0DF8940E94BC
:1009800027019B838A8380912C0290912D02B601CE
:100990000E943D0C789484E690E00E94AC08D0CF91
:1009A0000F931F93DF93CF930F92CDB7DEB70E94C3
:1009B000BE0EF8949FEF9ABB80E187BB8FEC82B9A3
:1009C00094BB8FE08093640087E083BF84E682BF9E
:1009D00083E085BD81E184BD81E087BF8AE08ABF75
:1009E00080E389BF8FB780688FBF789480E090E004
:1009F0000E944D0790932D0280932C0281E090E09D
:100A00000E94C107909327028093260280E08E0106
:100A10000F5F1F4FB8010E946D06909329028093CB
:100A2000280280E0B8010E946D0690932F02809307
:100A30002E0280E0B8010E946D06909331028093EF
:100A4000300280E0B8010E946D06909325028093E9
:100A5000240280E894E060E070E041EB52E020E0A6
:100A60000E94020A86E394E060E070E041E353E014
:100A700021E00E94020A8DEE93E060E070E041EB1D
:100A800053E022E00E94020A83EF92E060E070E00F
:100A900041E354E023E00E94020A89EB92E060E027
:100AA00070E041EB54E024E00E94020A0E943E0EF6
:100AB00080E090E00F90CF91DF911F910F9108950A
:100AC000FA018083929312921292129212921292CF
:100AD00012921292129212921292129212921292F6
:100AE00012921292129212921292129212921292E6
:100AF0001292129212926293729312921292129224
:100B0000129212921292129280E882933197CF0140
:100B100008950895089508950895089508950895ED
:100B2000089508958091B304813009F0089580916B
:100B300064058F3FD9F38F5F80936405089580919A
:100B4000B304813009F00895F8948091B2048F3F86
:100B500019F08F5F8093B204789408958CEF90E041
:100B60000895FF920F931F93CF93DF93EC018B01B6
:100B7000F42E3981E32FF0E0EF5DFE4F2081422F0C
:100B800050E0FA01E75EFE4F7081DC01A40FB51F53
:100B900016969C911697E92FF0E0EF5DFE4F80814D
:100BA000E82FF0E0E75EFE4F6081220F220F220F58
:100BB000280F862F8095892316968C93882321F4FD
:100BC000872F809538233983E22FF0E0EE0FFF1F47
:100BD000EF5CF84F0190F081E02D148613861782A8
:100BE0001682118700878F2D8095958589238587AB
:100BF000882359F480915E05872B80935E05FA0166
:100C0000E15AFA4F8081682B6083822FDF91CF9168
:100C10001F910F91FF900895CF93DF93EC01A09166
:100C20006505B091660517969C938E93169750961E
:100C30008C915097482F50E051963C915197FA0172
:100C4000E15AFA4F832F80959081892380838823EE
:100C5000A9F452962C91922F909580915E0589234C
:100C600080935E05FE01E40FF51F8681832B86834A
:100C70008981822B8983DF91CF91089552962C919F
:100C8000F1CFCF93DF93EC01A0916505B09166059C
:100C900050968C915097FE01E80FF11D51968C9162
:100CA00051978095968189238683882339F45296BB
:100CB0009C91529790958981892389831D961C92D6
:100CC0001D9717961C921E921697DF91CF9108954B
:100CD000FC011182168217820895282FDB01809172
:100CE00064058823D9F4F894E0912E07F0912F073A
:100CF000309779F08181928190932F0780932E070E
:100D000085E0808323831282118278941C92CF0124
:100D1000089578948AE98C93CF0108958DE88C9397
:100D2000E0E0F0E0F4CFEF92FF920F931F93CF93A8
:100D3000DF937C01FB01A0916505B09166051D96CE
:100D40008C911D9780621D968C931D971C961C9309
:100D50000E931B9740872187B583A483E701898180
:100D60009A819183808313821282F782E68289813D
:100D70009A81009719F0EC017B836A83E701FA837B
:100D8000E9835096EC915097F0E0E15AFA4F519672
:100D90008C9151978095908189238083882341F499
:100DA00052969C91909580915E05892380935E0573
:100DB000DF91CF911F910F91FF90EF90089529EB54
:100DC00034E0F901CF010496108292838183FC0103
:100DD00084E0E93CF807B1F71282118230932F07C3
:100DE00020932E070895CF93DF93FC01A281B38156
:100DF000C081D181109751F01196DC93CE9320974A
:100E000011F0BB83AA83DF91CF9108950680F7810B
:100E1000E02DD283C1832097B1F31B821A82DF9128
:100E2000CF9108951F93CF93DF93EC01AC81BD81E7
:100E30001C961C921E921B971A966C931A971D96DD
:100E40008C911D978F7D1D968C931D978823E1F4BF
:100E500080915E0552969C915297892B80935E05F6
:100E60005096EC915097F0E0E15AFA4F80815196FC
:100E70009C91892B808311E0CE010E94F306812F83
:100E8000DF91CF911F91089510E0CE010E94F306EB
:100E9000812FDF91CF911F9108959C01809164056E
:100EA0008823D9F4F894E0916105F09162053097B8
:100EB00031F08481958190936205809361057894E7
:100EC000309749F081E08083138212823583248336
:100ED000118216821782CF010895E0E0F0E0CF0181
:100EE0000895CF93DF93982FEB01809164058823B9
:100EF00009F042C0F894292F30E0D901AA0FBB1F96
:100F0000AF5CB84F8D919C911197892B19F581E0B9
:100F100090E011969C938E93E0916105F0916205AB
:100F2000309709F1848195819093620580936105E2
:100F3000789484E08083922F88278F6F93838283B5
:100F4000158214821182168217821882CF01DF91D6
:100F5000CF910895789488E28883E0E0F0E0CF01B3
:100F6000DF91CF9108951D921C92789484E088833C
:100F7000CF01DF91CF9108958DE88883E0E0F0E024
:100F8000E5CF9C01809164058823D9F4F894E09121
:100F90006105F0916205309731F0848195819093DD
:100FA0006205809361057894309749F083E08083EF
:100FB0003383228315821482118216821782CF0115
:100FC0000895E0E0F0E0CF0108951F93CF93DF9301
:100FD000182FF894C0915805D0915905209709F41D
:100FE00056C08A819B8190935905809358057894C7
:100FF000798368831E871D861C861B86E12FE695F4
:10100000E695E695E88BF0E0E75EFE4F80818A8BFF
:10101000E12FE770EF87F0E0E75EFE4F8081898B7C
:101020001F821E8219861886CE010E949105CE016C
:101030000E948905F894E12FF0E0EE0FFF1FEF5CAE
:10104000F84FD183C083E091CE04F091CF04FB83AD
:10105000EA831D821C82309711F0D583C483D0931C
:10106000CF04C093CE0480915E059A89892B80932A
:101070005E05E889F0E0E15AFA4F80819989892B71
:101080008083789480E0DF91CF911F9108957894C8
:1010900086E4DF91CF911F910895F8948091B40474
:1010A0009091B504A091B604B091B7040196A11D2A
:1010B000B11D8093B4049093B504A093B604B0938B
:1010C000B70478940E949005E8CFF8948091640565
:1010D000882309F03FC08091B2048823D9F5E091BC
:1010E0005E05F0E0EF5DFE4F8081E82FF0E0E15A11
:1010F000FA4FE081F0E0EF5DFE4F982F990F990FC6
:10110000990F8081980F9093B8048091CD0498171F
:1011100009F1E92FF0E0EE0FFF1FEF5CF84F80813F
:10112000918190935D0580935C058091500590912D
:101130005105A0915205B09153050196A11DB11D15
:101140008093500590935105A0935205B093530599
:101150000E946A0F789408959C01009721F1F894F9
:10116000A0916505B09166055096EC915097F0E01E
:10117000E15AFA4F51968C9151978095908189232D
:101180008083882349F452969C9152979095809140
:101190005E05892380935E051C963C932E931B97D6
:1011A00078940E94650808958F929F92AF92BF92A3
:1011B000CF92DF92EF92FF920F931F93CF93DF9323
:1011C000882E162F942E8823C9F01C3300F58BE34C
:1011D000891590F093E0283E3907D8F083E5DF9138
:1011E000CF911F910F91FF90EF90DF90CF90BF9024
:1011F000AF909F908F90089582E5F1CF662329F7F5
:10120000442329F72115310529F784E5E8CF81E545
:10121000E6CFB90180E090E024E630E040E050E025
:101220000E9465106C507E4F8F4F9F4F28EE33E029
:1012300040E050E00E94A41059016A01612F70E063
:1012400080E090E02CE330E040E050E00E94651048
:101250007B018C01E90CF11C011D111D682D70E052
:1012600080E090E020E13EE040E050E00E94651028
:10127000E60EF71E081F191FC801B70124E630E06B
:1012800040E050E00E946510A60EB71EC81ED91E91
:10129000760100271127E7018FEF9FEFA0E0B0E074
:1012A000A822B922CA22DB22C5010E94AC08EF287D
:1012B00051F080E090E80E94AC0880E090E80E9445
:1012C000AC082197B1F780E08ACFDF92EF92FF92CE
:1012D0000F931F9380913007882341F488EC90E0AE
:1012E0000E94AC08809130078823C1F360915405B7
:1012F00070915505809156059091570524E630E090
:1013000040E050E00E94A410C901DA017C018D0187
:10131000E4E6DE2E10C0A80197010E94A4108D2DD6
:10132000821B87FD44C080935A050E948C0584E689
:1013300090E00E94AC08F8948091B4049091B504B8
:10134000A091B604B091B70480934B0790934C07DB
:10135000A0934D07B0934E076091B4047091B5040B
:101360008091B6049091B7041092B4041092B50421
:101370001092B6041092B7047894E114F1040105B8
:10138000110549F610925A05609154057091550562
:10139000809156059091570524E630E040E050E0FA
:1013A0000E94A410C901DA017C018D01BECF109208
:1013B0005A05BBCF82E090E00E94AC08F8941092EE
:1013C000B4041092B5041092B6041092B704789445
:1013D00084E690E00E94AC08F8948091B404909167
:1013E000B504A091B604B091B704809354059093CE
:1013F0005505A0935605B093570581E080933007BB
:1014000078940895AF92BF92CF92DF92EF92FF92BD
:101410000F931F93CF93DF93FC01122FF894C22FE9
:10142000D0E0CC0FDD1FCF5CD84F88819981892B0C
:1014300071F0789418E2812FDF91CF911F910F9175
:10144000FF90EF90DF90CF90BF90AF90089581E034
:1014500090E0998388837894CF0120E030E00E9467
:101460006005BC01812F40E050E020E030E0EE2438
:10147000FF248701CC24DD24AA24BB240E94E50795
:10148000182F882371F4F89480915B058F5F809307
:101490005B0578948091B304813069F60E946508F9
:1014A000CACFF894198218827894C5CFFC01F894B9
:1014B0008181882379F4828193812FEF8F3F920776
:1014C00031F0019693838283789480E00895789434
:1014D00082E30895CF0160E070E041E00E94B10531
:1014E00078940E94650880E008950F931F93CF932E
:1014F000DF93EC018A0180916405882381F4F894DC
:101500008A819B81009799F001979B838A837894C5
:10151000FA011082DF91CF911F910F91089582E01F
:10152000FA018083DF91CF911F910F910895E0918F
:101530006505F09166058585816085877487638779
:10154000CE010E940C0678940E946508F894E09100
:101550006505F0916605858580FD0AC017821682B3
:101560007894F8011082DF91CF911F910F91089527
:10157000CE010E94410678948AE0F8018083CACFA8
:10158000CF93DF93EC01809164058823A1F4F89454
:101590003A814B81A0916505B09166051E968C91AC
:1015A0001E97841761F0381709F454C0789488E7BF
:1015B000DF91CF91089585E0DF91CF910895509606
:1015C000EC915097F0E0E15AFA4F51968C91519777
:1015D0008095908189238083882349F452969C9139
:1015E0005297909580915E05892380935E051E96A3
:1015F0003C931E97E32FE695E695E6955096EC937F
:101600005097F0E0E75EFE4F208152962C93529760
:10161000E32FE7701F96EC931F97F0E0E75EFE4F15
:10162000908151969C93519780915E05822B809377
:101630005E055096EC915097F0E0E15AFA4F8081A8
:10164000982B9083E32FF0E0EE0FFF1FEF5CF84F35
:10165000B183A083E42FF0E0EE0FFF1FEF5CF84FA3
:1016600081E090E0918380838981882361F48A817D
:101670009B818F6F9B838A831D821C82789480E07C
:10168000DF91CF910895CE0160E070E040E10E94CB
:10169000B105E82FF0E08A819B8180708E2B9F2B13
:1016A0009B838A83EE0FFF1FEF5CF84F808191814F
:1016B0009D838C8378940E94650880E079CF0F9396
:1016C0001F93CF93DF93EC018A01809164058823F7
:1016D000A1F5F8942A813B812F3F09F460C0432F84
:1016E000AC81BD811E968C911E97831709F452C060
:1016F000E0916505F09166058685821708F467C05C
:1017000085858061858774876387CE010E940C067A
:1017100078940E946508F894E0916505F09166055B
:10172000858584FD9EC0178216827894F801108208
:10173000DF91CF911F910F91089582E0FA0180838C
:10174000DF91CF911F910F9108951E963C931E97A4
:10175000E32FE695E695E6955096EC935097F0E0EA
:10176000E75EFE4F808152968C935297E32FE7708D
:101770001F96EC931F97F0E0E75EFE4F8081519635
:101780008C935197E42FF0E0EE0FFF1FEF5CF84FC2
:10179000B183A083E0916505F0916605B1CFC901E1
:1017A00080709B838A83E0916505F09166052685AC
:1017B00030E0282B392B3B832A83FD83EC837894FC
:1017C000FA011082DF91CF911F910F9108955096E9
:1017D0008C915097E82FF0E0E15AFA4F50815196E2
:1017E0009C915197852F892309F4AFCF892F80953C
:1017F00085238083882349F452969C915297909533
:1018000080915E05892380935E051E964C931E97FA
:10181000E42FE695E695E6955096EC935097F0E028
:10182000E75EFE4F208152962C935297E42FE7708B
:101830001F96EC931F97F0E0E75EFE4F9081519664
:101840009C93519780915E05822B80935E05509604
:10185000EC915097F0E0E15AFA4F8081982B9083F9
:1018600091CFCE010E94410678948AE0F8018083EE
:10187000DF91CF911F910F910895FC01F894818120
:10188000882339F484819581892B61F0789484E1EF
:101890000895CF0142E00E94B10578940E94650846
:1018A00080E0089575836483789480E00895EF92D2
:1018B000FF920F931F93CF93DF938C017A01809156
:1018C00064058823A1F5F894F801C481D581209797
:1018D00069F0158214827894FA011082CE01DF91AA
:1018E000CF911F910F91FF90EF900895E0916505C2
:1018F000F091660585858260858774876387C80156
:101900000E940C0678940E946508F894E0916505A1
:10191000F0916605C085D185209779F011861086F3
:101920001586178216827894F7011082D7CF82E04D
:10193000FA018083C0E0D0E0D1CFC8010E94410607
:1019400078948AE0F7018083C9CFCF92DF92EF923B
:10195000FF920F931F93DF93CF930F92CDB7DEB714
:101960008C017901F894442309F054C06095FC017E
:10197000838186238383F801C180D280C114D1047E
:1019800009F458C019820AC08330B1F1F601808190
:1019900091819C01690121153105D1F0F601818504
:1019A000823091F7F6016085F801838186236817FC
:1019B00069F7C6010E941207813041F7F1E0F9830F
:1019C000F601808191819C0169012115310531F772
:1019D0007894F981F13059F1F894F8018381789481
:1019E000F70110820F90CF91DF911F910F91FF901F
:1019F000EF90DF90CF900895F6016085F801838124
:101A0000682309F4C3CFC6010E941207813009F090
:101A1000BDCFD4CF413031F0789489E9F90180838A
:101A200080E0E0CFFC018381862B8383A4CF0E94DA
:101A30006508D2CF1982CCCF8F929F92AF92BF927E
:101A4000CF92DF92FF920F931F93DF93CF93CDB787
:101A5000DEB72B970FB6F894DEBF0FBECDBF6C017B
:101A6000562FF42EF901580180916405882309F559
:101A700047FD24C01B86F89482E0F81639F1A3E0F4
:101A8000FA16C9F1789487E9F501808380E02B96F6
:101A90000FB6F894DEBF0FBECDBFCF91DF911F917F
:101AA0000F91FF90DF90CF90BF90AF909F908F905D
:101AB000089582E0D8018C9380E0E9CFBFE7FB2254
:101AC00021E02B87F89482E0F816C9F6D601139628
:101AD0009C91852F8923851709F5BB85B13031F499
:101AE000852F80958923F6018383982F892F7894F9
:101AF000D5011C92CCCFD60113969C91852F8923BA
:101B000069F1BB85B13029F480958923F60183837F
:101B1000982F892F7894D5011C92B9CFC6014E0118
:101B20000894811C911CB401452F22E08F010E9472
:101B3000930678940E946508F894E0916505F09109
:101B40006605858585FD17C0BB85B13011F1F601AD
:101B50009381892F7894D5011C9299CFC6014E01AB
:101B60000894811C911CB401452F23E08F010E9431
:101B700093067894DFCFC4010E94F306E0916505D7
:101B8000F0916605158678948AE0D5018C9380E003
:101B90007ECF2EEFF20E81E08F1520F4D601139642
:101BA0009C91D7CF82858095F6019381982393836A
:101BB000D0CF8091B304813009F00895F8948091DA
:101BC000B204882359F081508093B204882321F411
:101BD00080916405882321F078940895789408957D
:101BE00078940E94650808950E948D058091B30441
:101BF000813009F00895A091CE04B091CF041E96D3
:101C00008C911E978C30B1F320915E0541E050E03D
:101C10001AC052968C915297282B5096EC9150975F
:101C2000F0E0E15AFA4F808151969C915197892BAF
:101C3000808312960D90BC91A02D78941E968C9165
:101C40001E978C30C1F0F8941B968D919C911C9737
:101C5000009779F301971C969C938E931B97892B81
:101C600041F71D968C911D9783FFD3CF1C965C93F3
:101C70004E931B97DECF20935E0508958091B304A9
:101C800081110895E0915E05F0E0EF5DFE4FA081C7
:101C9000EA2FF0E0E15AFA4FE081F0E0EF5DFE4F0D
:101CA000AA0FAA0FAA0F8081A80FA093B804A0932F
:101CB000CD04B0E0AA0FBB1FAF5CB84F8D919C91D3
:101CC00090935D0580935C05909366058093650510
:101CD0000E94360F08958091B304813009F0089571
:101CE000F89480916405882339F0815080936405CD
:101CF000882311F0789408958091B2048823D1F755
:101D0000E0915E05F0E0EF5DFE4F8081809363051A
:101D1000E82FF0E0E15AFA4FE081F0E0EF5DFE4F8E
:101D2000982F990F990F990F8081980F9093B8046D
:101D30008091CD049817F1F2E92FF0E0EE0FFF1F2C
:101D4000EF5CF84F8081918190935D0580935C05F5
:101D50008091500590915105A0915205B091530585
:101D60000196A11DB11D8093500590935105A0933C
:101D70005205B09353050E94CD0FBCCF0E948E0533
:101D8000109264051092B20410925B051092B30495
:101D90001092500510925105109252051092530561
:101DA0001092B4041092B5041092B6041092B704C5
:101DB00010925E0510925F05109260051092CD049E
:101DC0001092B80410925D0510925C0510926605A1
:101DD000109265051092CF041092CE04E1E3F7E073
:101DE0001192119227E0EB34F207D1F78AE496E0E2
:101DF000FC01719791838083439627E08E3292078E
:101E0000B9F710921E0710921D0787E396E0909392
:101E100059058093580527EE35E0F901CF01089662
:101E2000108295838483FC0186E0EF32F807B1F7D6
:101E300010821582148230936205209361050E94FE
:101E4000DF068DE498E060E070E046EE55E02CE0BF
:101E50000E94020A85E699E060E070E04FE455E0F8
:101E60002BE00E94020A0E948F0508950E948B05B4
:101E70000091B30403950093B304E0915C05F091E5
:101E80005D05C191CDBFD191DEBF0F910FBF0F9105
:101E90000BBFFF91EF91DF91CF91BF91AF919F91D8
:101EA0008F917F916F915F914F913F912F911F91F2
:101EB0000F91FF90EF90DF90CF90BF90AF909F90E9
:101EC0008F907F906F905F904F903F902F901F90DA
:101ED0000F9008950F921F922F923F924F925F9210
:101EE0006F927F928F929F92AF92BF92CF92DF922A
:101EF000EF92FF920F931F932F933F934F935F9314
:101F00006F937F938F939F93AF93BF93CF93DF9301
:101F1000EF93FF930BB70F930FB70F93E091650506
:101F2000F0916605CDB7C193DEB7D1930E948B05C2
:101F30000091B8040093CD04E0915C05F0915D053B
:101F4000E0936505F0936605C191CDBFD191DEBFE9
:101F50000F910FBF0F910BBFFF91EF91DF91CF91C9
:101F6000BF91AF919F918F917F916F915F914F91B1
:101F70003F912F911F910F91FF90EF90DF90CF90A5
:101F8000BF90AF909F908F907F906F905F904F9099
:101F90003F902F901F900F9008950E948B05009105
:101FA000B8040093CD04E0915C05F0915D05E093E9
:101FB0006505F0936605C191CDBFD191DEBF0F914C
:101FC0000FBF0F910BBFFF91EF91DF91CF91BF91A9
:101FD000AF919F918F917F916F915F914F913F91C1
:101FE0002F911F910F91FF90EF90DF90CF90BF90B6
:101FF000AF909F908F907F906F905F904F903F90A9
:102000002F901F900F9008950F921F922F923F9242
:102010004F925F926F927F928F929F92AF92BF92F8
:10202000CF92DF92EF92FF920F931F932F933F93E4
:102030004F935F936F937F938F939F93AF93BF93D0
:10204000CF93DF93EF93FF930BB70F930FB7006816
:102050000F9300916405039500936405013041F4EA
:10206000CDB7DEB7E0916505F0916605C193D193D8
:1020700004E602BF78940E94F40D00000E946B0EEB
:102080000F910FBF0F910BBFFF91EF91DF91CF9198
:10209000BF91AF919F918F917F916F915F914F9180
:1020A0003F912F911F910F91FF90EF90DF90CF9074
:1020B000BF90AF909F908F907F906F905F904F9068
:1020C0003F902F901F900F900895629FD001739FB3
:1020D000F001829FE00DF11D649FE00DF11D929FC4
:1020E000F00D839FF00D749FF00D659FF00D992703
:1020F000729FB00DE11DF91F639FB00DE11DF91F27
:10210000BD01CF0111240895991B79E004C0991FE6
:10211000961708F0961B881F7A95C9F78095089541
:10212000AA1BBB1B51E107C0AA1FBB1FA617B707FD
:1021300010F0A61BB70B881F991F5A95A9F7809519
:102140009095BC01CD010895A1E21A2EAA1BBB1BDC
:10215000FD010DC0AA1FBB1FEE1FFF1FA217B30773
:10216000E407F50720F0A21BB30BE40BF50B661F89
:10217000771F881F991F1A9469F76095709580954D
:1021800090959B01AC01BD01CF010895F894FFCF5C
:10219000743F065B4F666D7D277F6F777C395E7974
:1021A0007180400800010204080102040810204068
:1021B0008000000100020001000300010002000194
:1021C0000004000100020001000300010002000100
:1021D00000050001000200010003000100020001EF
:1021E00000040001000200010003000100020001E0
:1021F00000060001000200010003000100020001CE
:1022000000040001000200010003000100020001BF
:1022100000050001000200010003000100020001AE
:10222000000400010002000100030001000200019F
:10223000000700010002000100030001000200018C
:10224000000400010002000100030001000200017F
:10225000000500010002000100030001000200016E
:10226000000400010002000100030001000200015F
:10227000000600010002000100030001000200014D
:10228000000400010002000100030001000200013F
:10229000000500010002000100030001000200012E
:1022A000000400010002000100030001000200011F
:0222B00000002C
:00000001FF
